:100000000C9434000C943E000C943E000C943E0082
:100010000C943E000C943E000C943E000C943E0068
:100020000C943E000C943E000C943E000C943E0058
:100030000C943E000C943E000C943E000C943E0048
:100040000C943E000C943E000C943E000C943E0038
:100050000C943E000C943E000C943E000C943E0028
:100060000C943E000C943E0011241FBECFEFD8E04C
:10007000DEBFCDBF0E9440000C9458000C940000DD
:1000800080E88093610083E08093610081E08AB919
:100090001BB882E084BD81E387BD25E091E025BDEA
:1000A000A99BFECF15BCA99A8BB189278BB9F7CF35
:0400B000F894FFCFF2
:00000001FF
